{"project/contracts/MyAccount.sol":{"MyAccount":{"abi":[{"inputs":[{"internalType":"contract IEntryPoint","name":"anEntryPoint","type":"address"},{"internalType":"address","name":"anOwner","type":"address"}],"stateMutability":"nonpayable","type":"constructor"},{"inputs":[],"name":"ECDSAInvalidSignature","type":"error"},{"inputs":[{"internalType":"uint256","name":"length","type":"uint256"}],"name":"ECDSAInvalidSignatureLength","type":"error"},{"inputs":[{"internalType":"bytes32","name":"s","type":"bytes32"}],"name":"ECDSAInvalidSignatureS","type":"error"},{"inputs":[{"internalType":"uint256","name":"index","type":"uint256"},{"internalType":"bytes","name":"error","type":"bytes"}],"name":"ExecuteError","type":"error"},{"inputs":[],"name":"entryPoint","outputs":[{"internalType":"contract IEntryPoint","name":"","type":"address"}],"stateMutability":"view","type":"function"},{"inputs":[{"internalType":"address","name":"target","type":"address"},{"internalType":"uint256","name":"value","type":"uint256"},{"internalType":"bytes","name":"data","type":"bytes"}],"name":"execute","outputs":[],"stateMutability":"nonpayable","type":"function"},{"inputs":[{"components":[{"internalType":"address","name":"target","type":"address"},{"internalType":"uint256","name":"value","type":"uint256"},{"internalType":"bytes","name":"data","type":"bytes"}],"internalType":"struct BaseAccount.Call[]","name":"calls","type":"tuple[]"}],"name":"executeBatch","outputs":[],"stateMutability":"nonpayable","type":"function"},{"inputs":[],"name":"getNonce","outputs":[{"internalType":"uint256","name":"","type":"uint256"}],"stateMutability":"view","type":"function"},{"inputs":[{"internalType":"address","name":"anOwner","type":"address"}],"name":"initialize","outputs":[],"stateMutability":"nonpayable","type":"function"},{"inputs":[],"name":"owner","outputs":[{"internalType":"address","name":"","type":"address"}],"stateMutability":"view","type":"function"},{"inputs":[{"components":[{"internalType":"address","name":"sender","type":"address"},{"internalType":"uint256","name":"nonce","type":"uint256"},{"internalType":"bytes","name":"initCode","type":"bytes"},{"internalType":"bytes","name":"callData","type":"bytes"},{"internalType":"bytes32","name":"accountGasLimits","type":"bytes32"},{"internalType":"uint256","name":"preVerificationGas","type":"uint256"},{"internalType":"bytes32","name":"gasFees","type":"bytes32"},{"internalType":"bytes","name":"paymasterAndData","type":"bytes"},{"internalType":"bytes","name":"signature","type":"bytes"}],"internalType":"struct PackedUserOperation","name":"userOp","type":"tuple"},{"internalType":"bytes32","name":"userOpHash","type":"bytes32"},{"internalType":"uint256","name":"missingAccountFunds","type":"uint256"}],"name":"validateUserOp","outputs":[{"internalType":"uint256","name":"validationData","type":"uint256"}],"stateMutability":"nonpayable","type":"function"},{"stateMutability":"payable","type":"receive"}],"evm":{"bytecode":{"linkReferences":{},"object":"60a060405234801561000f575f5ffd5b50604051610ac9380380610ac983398101604081905261002e9161006c565b6001600160a01b039182166080525f80546001600160a01b031916919092161790556100a4565b6001600160a01b0381168114610069575f5ffd5b50565b5f5f6040838503121561007d575f5ffd5b825161008881610055565b602084015190925061009981610055565b809150509250929050565b6080516109ff6100ca5f395f81816101130152818161031c01526103b901526109ff5ff3fe608060405260043610610071575f3560e01c8063b0d691fe1161004c578063b0d691fe14610105578063b61d27f614610137578063c4d66de814610156578063d087d28814610191575f5ffd5b806319822f7c1461007c57806334fcd5be146100ae5780638da5cb5b146100cf575f5ffd5b3661007857005b5f5ffd5b348015610087575f5ffd5b5061009b61009636600461076f565b6101a5565b6040519081526020015b60405180910390f35b3480156100b9575f5ffd5b506100cd6100c83660046107be565b6101ca565b005b3480156100da575f5ffd5b505f546100ed906001600160a01b031681565b6040516001600160a01b0390911681526020016100a5565b348015610110575f5ffd5b507f00000000000000000000000000000000000000000000000000000000000000006100ed565b348015610142575f5ffd5b506100cd61015136600461084a565b6102ba565b348015610161575f5ffd5b506100cd6101703660046108cd565b5f80546001600160a01b0319166001600160a01b0392909216919091179055565b34801561019c575f5ffd5b5061009b610319565b5f6101ae6103ae565b6101b88484610428565b90506101c3826104cd565b9392505050565b6101d2610512565b805f5b818110156102b457368484838181106101f0576101f06108e6565b905060200281019061020291906108fa565b90505f61026061021560208401846108cd565b60208401356102276040860186610918565b8080601f0160208091040260200160405190810160405280939291908181526020018383808284375f920191909152505050505a61051a565b9050806102aa578360010361027c57610277610530565b6102aa565b826102865f610541565b604051635a15467560e01b81526004016102a1929190610962565b60405180910390fd5b50506001016101d5565b50505050565b6102c2610512565b5f610303858585858080601f0160208091040260200160405190810160405280939291908181526020018383808284375f920191909152505050505a61051a565b90508061031257610312610530565b5050505050565b5f7f0000000000000000000000000000000000000000000000000000000000000000604051631aab3f0d60e11b81523060048201525f60248201526001600160a01b0391909116906335567e1a90604401602060405180830381865afa158015610385573d5f5f3e3d5ffd5b505050506040513d601f19601f820116820180604052508101906103a9919061099e565b905090565b336001600160a01b037f000000000000000000000000000000000000000000000000000000000000000016146104265760405162461bcd60e51b815260206004820152601c60248201527f6163636f756e743a206e6f742066726f6d20456e747279506f696e740000000060448201526064016102a1565b565b7f19457468657265756d205369676e6564204d6573736167653a0a3332000000005f908152601c829052603c81206104a181610468610100870187610918565b8080601f0160208091040260200160405190810160405280939291908181526020018383808284375f9201919091525061057292505050565b5f546001600160a01b039081169116146104bf5760019150506104c4565b5f9150505b92915050565b50565b80156104ca576040515f90339083908381818185875af1925050503d805f8114610312576040519150601f19603f3d011682016040523d82523d5f602084013e610312565b6104266103ae565b5f5f5f845160208601878987f195945050505050565b61042661053c5f610541565b61059a565b60603d821561055557828111156105555750815b604051602082018101604052818152815f602083013e9392505050565b5f5f5f5f61058086866105a2565b92509250925061059082826105eb565b5090949350505050565b805160208201fd5b5f5f5f83516041036105d9576020840151604085015160608601515f1a6105cb888285856106a7565b9550955095505050506105e4565b505081515f91506002905b9250925092565b5f8260038111156105fe576105fe6109b5565b03610607575050565b600182600381111561061b5761061b6109b5565b036106395760405163f645eedf60e01b815260040160405180910390fd5b600282600381111561064d5761064d6109b5565b0361066e5760405163fce698f760e01b8152600481018290526024016102a1565b6003826003811115610682576106826109b5565b036106a3576040516335e2f38360e21b8152600481018290526024016102a1565b5050565b5f80807f7fffffffffffffffffffffffffffffff5d576e7357a4501ddfe92f46681b20a08411156106e057505f91506003905082610765565b604080515f808252602082018084528a905260ff891692820192909252606081018790526080810186905260019060a0016020604051602081039080840390855afa158015610731573d5f5f3e3d5ffd5b5050604051601f1901519150506001600160a01b03811661075c57505f925060019150829050610765565b92505f91508190505b9450945094915050565b5f5f5f60608486031215610781575f5ffd5b833567ffffffffffffffff811115610797575f5ffd5b840161012081870312156107a9575f5ffd5b95602085013595506040909401359392505050565b5f5f602083850312156107cf575f5ffd5b823567ffffffffffffffff8111156107e5575f5ffd5b8301601f810185136107f5575f5ffd5b803567ffffffffffffffff81111561080b575f5ffd5b8560208260051b840101111561081f575f5ffd5b6020919091019590945092505050565b80356001600160a01b0381168114610845575f5ffd5b919050565b5f5f5f5f6060858703121561085d575f5ffd5b6108668561082f565b935060208501359250604085013567ffffffffffffffff811115610888575f5ffd5b8501601f81018713610898575f5ffd5b803567ffffffffffffffff8111156108ae575f5ffd5b8760208284010111156108bf575f5ffd5b949793965060200194505050565b5f602082840312156108dd575f5ffd5b6101c38261082f565b634e487b7160e01b5f52603260045260245ffd5b5f8235605e1983360301811261090e575f5ffd5b9190910192915050565b5f5f8335601e1984360301811261092d575f5ffd5b83018035915067ffffffffffffffff821115610947575f5ffd5b60200191503681900382131561095b575f5ffd5b9250929050565b828152604060208201525f82518060408401528060208501606085015e5f606082850101526060601f19601f8301168401019150509392505050565b5f602082840312156109ae575f5ffd5b5051919050565b634e487b7160e01b5f52602160045260245ffdfea26469706673582212206f520dff21ae1ab2d28c703a83c6e3dce42f4d43afc45c35357afdf9d42b47bb64736f6c634300081c0033","opcodes":"PUSH1 0xA0 PUSH1 0x40 MSTORE CALLVALUE DUP1 ISZERO PUSH2 0xF JUMPI PUSH0 PUSH0 REVERT JUMPDEST POP PUSH1 0x40 MLOAD PUSH2 0xAC9 CODESIZE SUB DUP1 PUSH2 0xAC9 DUP4 CODECOPY DUP2 ADD PUSH1 0x40 DUP2 SWAP1 MSTORE PUSH2 0x2E SWAP2 PUSH2 0x6C JUMP JUMPDEST PUSH1 0x1 PUSH1 0x1 PUSH1 0xA0 SHL SUB SWAP2 DUP3 AND PUSH1 0x80 MSTORE PUSH0 DUP1 SLOAD PUSH1 0x1 PUSH1 0x1 PUSH1 0xA0 SHL SUB NOT AND SWAP2 SWAP1 SWAP3 AND OR SWAP1 SSTORE PUSH2 0xA4 JUMP JUMPDEST PUSH1 0x1 PUSH1 0x1 PUSH1 0xA0 SHL SUB DUP2 AND DUP2 EQ PUSH2 0x69 JUMPI PUSH0 PUSH0 REVERT JUMPDEST POP JUMP JUMPDEST PUSH0 PUSH0 PUSH1 0x40 DUP4 DUP6 SUB SLT ISZERO PUSH2 0x7D JUMPI PUSH0 PUSH0 REVERT JUMPDEST DUP3 MLOAD PUSH2 0x88 DUP2 PUSH2 0x55 JUMP JUMPDEST PUSH1 0x20 DUP5 ADD MLOAD SWAP1 SWAP3 POP PUSH2 0x99 DUP2 PUSH2 0x55 JUMP JUMPDEST DUP1 SWAP2 POP POP SWAP3 POP SWAP3 SWAP1 POP JUMP JUMPDEST PUSH1 0x80 MLOAD PUSH2 0x9FF PUSH2 0xCA PUSH0 CODECOPY PUSH0 DUP2 DUP2 PUSH2 0x113 ADD MSTORE DUP2 DUP2 PUSH2 0x31C ADD MSTORE PUSH2 0x3B9 ADD MSTORE PUSH2 0x9FF PUSH0 RETURN INVALID PUSH1 0x80 PUSH1 0x40 MSTORE PUSH1 0x4 CALLDATASIZE LT PUSH2 0x71 JUMPI PUSH0 CALLDATALOAD PUSH1 0xE0 SHR DUP1 PUSH4 0xB0D691FE GT PUSH2 0x4C JUMPI DUP1 PUSH4 0xB0D691FE EQ PUSH2 0x105 JUMPI DUP1 PUSH4 0xB61D27F6 EQ PUSH2 0x137 JUMPI DUP1 PUSH4 0xC4D66DE8 EQ PUSH2 0x156 JUMPI DUP1 PUSH4 0xD087D288 EQ PUSH2 0x191 JUMPI PUSH0 PUSH0 REVERT JUMPDEST DUP1 PUSH4 0x19822F7C EQ PUSH2 0x7C JUMPI DUP1 PUSH4 0x34FCD5BE EQ PUSH2 0xAE JUMPI DUP1 PUSH4 0x8DA5CB5B EQ PUSH2 0xCF JUMPI PUSH0 PUSH0 REVERT JUMPDEST CALLDATASIZE PUSH2 0x78 JUMPI STOP JUMPDEST PUSH0 PUSH0 REVERT JUMPDEST CALLVALUE DUP1 ISZERO PUSH2 0x87 JUMPI PUSH0 PUSH0 REVERT JUMPDEST POP PUSH2 0x9B PUSH2 0x96 CALLDATASIZE PUSH1 0x4 PUSH2 0x76F JUMP JUMPDEST PUSH2 0x1A5 JUMP JUMPDEST PUSH1 0x40 MLOAD SWAP1 DUP2 MSTORE PUSH1 0x20 ADD JUMPDEST PUSH1 0x40 MLOAD DUP1 SWAP2 SUB SWAP1 RETURN JUMPDEST CALLVALUE DUP1 ISZERO PUSH2 0xB9 JUMPI PUSH0 PUSH0 REVERT JUMPDEST POP PUSH2 0xCD PUSH2 0xC8 CALLDATASIZE PUSH1 0x4 PUSH2 0x7BE JUMP JUMPDEST PUSH2 0x1CA JUMP JUMPDEST STOP JUMPDEST CALLVALUE DUP1 ISZERO PUSH2 0xDA JUMPI PUSH0 PUSH0 REVERT JUMPDEST POP PUSH0 SLOAD PUSH2 0xED SWAP1 PUSH1 0x1 PUSH1 0x1 PUSH1 0xA0 SHL SUB AND DUP2 JUMP JUMPDEST PUSH1 0x40 MLOAD PUSH1 0x1 PUSH1 0x1 PUSH1 0xA0 SHL SUB SWAP1 SWAP2 AND DUP2 MSTORE PUSH1 0x20 ADD PUSH2 0xA5 JUMP JUMPDEST CALLVALUE DUP1 ISZERO PUSH2 0x110 JUMPI PUSH0 PUSH0 REVERT JUMPDEST POP PUSH32 0x0 PUSH2 0xED JUMP JUMPDEST CALLVALUE DUP1 ISZERO PUSH2 0x142 JUMPI PUSH0 PUSH0 REVERT JUMPDEST POP PUSH2 0xCD PUSH2 0x151 CALLDATASIZE PUSH1 0x4 PUSH2 0x84A JUMP JUMPDEST PUSH2 0x2BA JUMP JUMPDEST CALLVALUE DUP1 ISZERO PUSH2 0x161 JUMPI PUSH0 PUSH0 REVERT JUMPDEST POP PUSH2 0xCD PUSH2 0x170 CALLDATASIZE PUSH1 0x4 PUSH2 0x8CD JUMP JUMPDEST PUSH0 DUP1 SLOAD PUSH1 0x1 PUSH1 0x1 PUSH1 0xA0 SHL SUB NOT AND PUSH1 0x1 PUSH1 0x1 PUSH1 0xA0 SHL SUB SWAP3 SWAP1 SWAP3 AND SWAP2 SWAP1 SWAP2 OR SWAP1 SSTORE JUMP JUMPDEST CALLVALUE DUP1 ISZERO PUSH2 0x19C JUMPI PUSH0 PUSH0 REVERT JUMPDEST POP PUSH2 0x9B PUSH2 0x319 JUMP JUMPDEST PUSH0 PUSH2 0x1AE PUSH2 0x3AE JUMP JUMPDEST PUSH2 0x1B8 DUP5 DUP5 PUSH2 0x428 JUMP JUMPDEST SWAP1 POP PUSH2 0x1C3 DUP3 PUSH2 0x4CD JUMP JUMPDEST SWAP4 SWAP3 POP POP POP JUMP JUMPDEST PUSH2 0x1D2 PUSH2 0x512 JUMP JUMPDEST DUP1 PUSH0 JUMPDEST DUP2 DUP2 LT ISZERO PUSH2 0x2B4 JUMPI CALLDATASIZE DUP5 DUP5 DUP4 DUP2 DUP2 LT PUSH2 0x1F0 JUMPI PUSH2 0x1F0 PUSH2 0x8E6 JUMP JUMPDEST SWAP1 POP PUSH1 0x20 MUL DUP2 ADD SWAP1 PUSH2 0x202 SWAP2 SWAP1 PUSH2 0x8FA JUMP JUMPDEST SWAP1 POP PUSH0 PUSH2 0x260 PUSH2 0x215 PUSH1 0x20 DUP5 ADD DUP5 PUSH2 0x8CD JUMP JUMPDEST PUSH1 0x20 DUP5 ADD CALLDATALOAD PUSH2 0x227 PUSH1 0x40 DUP7 ADD DUP7 PUSH2 0x918 JUMP JUMPDEST DUP1 DUP1 PUSH1 0x1F ADD PUSH1 0x20 DUP1 SWAP2 DIV MUL PUSH1 0x20 ADD PUSH1 0x40 MLOAD SWAP1 DUP2 ADD PUSH1 0x40 MSTORE DUP1 SWAP4 SWAP3 SWAP2 SWAP1 DUP2 DUP2 MSTORE PUSH1 0x20 ADD DUP4 DUP4 DUP1 DUP3 DUP5 CALLDATACOPY PUSH0 SWAP3 ADD SWAP2 SWAP1 SWAP2 MSTORE POP POP POP POP GAS PUSH2 0x51A JUMP JUMPDEST SWAP1 POP DUP1 PUSH2 0x2AA JUMPI DUP4 PUSH1 0x1 SUB PUSH2 0x27C JUMPI PUSH2 0x277 PUSH2 0x530 JUMP JUMPDEST PUSH2 0x2AA JUMP JUMPDEST DUP3 PUSH2 0x286 PUSH0 PUSH2 0x541 JUMP JUMPDEST PUSH1 0x40 MLOAD PUSH4 0x5A154675 PUSH1 0xE0 SHL DUP2 MSTORE PUSH1 0x4 ADD PUSH2 0x2A1 SWAP3 SWAP2 SWAP1 PUSH2 0x962 JUMP JUMPDEST PUSH1 0x40 MLOAD DUP1 SWAP2 SUB SWAP1 REVERT JUMPDEST POP POP PUSH1 0x1 ADD PUSH2 0x1D5 JUMP JUMPDEST POP POP POP POP JUMP JUMPDEST PUSH2 0x2C2 PUSH2 0x512 JUMP JUMPDEST PUSH0 PUSH2 0x303 DUP6 DUP6 DUP6 DUP6 DUP1 DUP1 PUSH1 0x1F ADD PUSH1 0x20 DUP1 SWAP2 DIV MUL PUSH1 0x20 ADD PUSH1 0x40 MLOAD SWAP1 DUP2 ADD PUSH1 0x40 MSTORE DUP1 SWAP4 SWAP3 SWAP2 SWAP1 DUP2 DUP2 MSTORE PUSH1 0x20 ADD DUP4 DUP4 DUP1 DUP3 DUP5 CALLDATACOPY PUSH0 SWAP3 ADD SWAP2 SWAP1 SWAP2 MSTORE POP POP POP POP GAS PUSH2 0x51A JUMP JUMPDEST SWAP1 POP DUP1 PUSH2 0x312 JUMPI PUSH2 0x312 PUSH2 0x530 JUMP JUMPDEST POP POP POP POP POP JUMP JUMPDEST PUSH0 PUSH32 0x0 PUSH1 0x40 MLOAD PUSH4 0x1AAB3F0D PUSH1 0xE1 SHL DUP2 MSTORE ADDRESS PUSH1 0x4 DUP3 ADD MSTORE PUSH0 PUSH1 0x24 DUP3 ADD MSTORE PUSH1 0x1 PUSH1 0x1 PUSH1 0xA0 SHL SUB SWAP2 SWAP1 SWAP2 AND SWAP1 PUSH4 0x35567E1A SWAP1 PUSH1 0x44 ADD PUSH1 0x20 PUSH1 0x40 MLOAD DUP1 DUP4 SUB DUP2 DUP7 GAS STATICCALL ISZERO DUP1 ISZERO PUSH2 0x385 JUMPI RETURNDATASIZE PUSH0 PUSH0 RETURNDATACOPY RETURNDATASIZE PUSH0 REVERT JUMPDEST POP POP POP POP PUSH1 0x40 MLOAD RETURNDATASIZE PUSH1 0x1F NOT PUSH1 0x1F DUP3 ADD AND DUP3 ADD DUP1 PUSH1 0x40 MSTORE POP DUP2 ADD SWAP1 PUSH2 0x3A9 SWAP2 SWAP1 PUSH2 0x99E JUMP JUMPDEST SWAP1 POP SWAP1 JUMP JUMPDEST CALLER PUSH1 0x1 PUSH1 0x1 PUSH1 0xA0 SHL SUB PUSH32 0x0 AND EQ PUSH2 0x426 JUMPI PUSH1 0x40 MLOAD PUSH3 0x461BCD PUSH1 0xE5 SHL DUP2 MSTORE PUSH1 0x20 PUSH1 0x4 DUP3 ADD MSTORE PUSH1 0x1C PUSH1 0x24 DUP3 ADD MSTORE PUSH32 0x6163636F756E743A206E6F742066726F6D20456E747279506F696E7400000000 PUSH1 0x44 DUP3 ADD MSTORE PUSH1 0x64 ADD PUSH2 0x2A1 JUMP JUMPDEST JUMP JUMPDEST PUSH32 0x19457468657265756D205369676E6564204D6573736167653A0A333200000000 PUSH0 SWAP1 DUP2 MSTORE PUSH1 0x1C DUP3 SWAP1 MSTORE PUSH1 0x3C DUP2 KECCAK256 PUSH2 0x4A1 DUP2 PUSH2 0x468 PUSH2 0x100 DUP8 ADD DUP8 PUSH2 0x918 JUMP JUMPDEST DUP1 DUP1 PUSH1 0x1F ADD PUSH1 0x20 DUP1 SWAP2 DIV MUL PUSH1 0x20 ADD PUSH1 0x40 MLOAD SWAP1 DUP2 ADD PUSH1 0x40 MSTORE DUP1 SWAP4 SWAP3 SWAP2 SWAP1 DUP2 DUP2 MSTORE PUSH1 0x20 ADD DUP4 DUP4 DUP1 DUP3 DUP5 CALLDATACOPY PUSH0 SWAP3 ADD SWAP2 SWAP1 SWAP2 MSTORE POP PUSH2 0x572 SWAP3 POP POP POP JUMP JUMPDEST PUSH0 SLOAD PUSH1 0x1 PUSH1 0x1 PUSH1 0xA0 SHL SUB SWAP1 DUP2 AND SWAP2 AND EQ PUSH2 0x4BF JUMPI PUSH1 0x1 SWAP2 POP POP PUSH2 0x4C4 JUMP JUMPDEST PUSH0 SWAP2 POP POP JUMPDEST SWAP3 SWAP2 POP POP JUMP JUMPDEST POP JUMP JUMPDEST DUP1 ISZERO PUSH2 0x4CA JUMPI PUSH1 0x40 MLOAD PUSH0 SWAP1 CALLER SWAP1 DUP4 SWAP1 DUP4 DUP2 DUP2 DUP2 DUP6 DUP8 GAS CALL SWAP3 POP POP POP RETURNDATASIZE DUP1 PUSH0 DUP2 EQ PUSH2 0x312 JUMPI PUSH1 0x40 MLOAD SWAP2 POP PUSH1 0x1F NOT PUSH1 0x3F RETURNDATASIZE ADD AND DUP3 ADD PUSH1 0x40 MSTORE RETURNDATASIZE DUP3 MSTORE RETURNDATASIZE PUSH0 PUSH1 0x20 DUP5 ADD RETURNDATACOPY PUSH2 0x312 JUMP JUMPDEST PUSH2 0x426 PUSH2 0x3AE JUMP JUMPDEST PUSH0 PUSH0 PUSH0 DUP5 MLOAD PUSH1 0x20 DUP7 ADD DUP8 DUP10 DUP8 CALL SWAP6 SWAP5 POP POP POP POP POP JUMP JUMPDEST PUSH2 0x426 PUSH2 0x53C PUSH0 PUSH2 0x541 JUMP JUMPDEST PUSH2 0x59A JUMP JUMPDEST PUSH1 0x60 RETURNDATASIZE DUP3 ISZERO PUSH2 0x555 JUMPI DUP3 DUP2 GT ISZERO PUSH2 0x555 JUMPI POP DUP2 JUMPDEST PUSH1 0x40 MLOAD PUSH1 0x20 DUP3 ADD DUP2 ADD PUSH1 0x40 MSTORE DUP2 DUP2 MSTORE DUP2 PUSH0 PUSH1 0x20 DUP4 ADD RETURNDATACOPY SWAP4 SWAP3 POP POP POP JUMP JUMPDEST PUSH0 PUSH0 PUSH0 PUSH0 PUSH2 0x580 DUP7 DUP7 PUSH2 0x5A2 JUMP JUMPDEST SWAP3 POP SWAP3 POP SWAP3 POP PUSH2 0x590 DUP3 DUP3 PUSH2 0x5EB JUMP JUMPDEST POP SWAP1 SWAP5 SWAP4 POP POP POP POP JUMP JUMPDEST DUP1 MLOAD PUSH1 0x20 DUP3 ADD REVERT JUMPDEST PUSH0 PUSH0 PUSH0 DUP4 MLOAD PUSH1 0x41 SUB PUSH2 0x5D9 JUMPI PUSH1 0x20 DUP5 ADD MLOAD PUSH1 0x40 DUP6 ADD MLOAD PUSH1 0x60 DUP7 ADD MLOAD PUSH0 BYTE PUSH2 0x5CB DUP9 DUP3 DUP6 DUP6 PUSH2 0x6A7 JUMP JUMPDEST SWAP6 POP SWAP6 POP SWAP6 POP POP POP POP PUSH2 0x5E4 JUMP JUMPDEST POP POP DUP2 MLOAD PUSH0 SWAP2 POP PUSH1 0x2 SWAP1 JUMPDEST SWAP3 POP SWAP3 POP SWAP3 JUMP JUMPDEST PUSH0 DUP3 PUSH1 0x3 DUP2 GT ISZERO PUSH2 0x5FE JUMPI PUSH2 0x5FE PUSH2 0x9B5 JUMP JUMPDEST SUB PUSH2 0x607 JUMPI POP POP JUMP JUMPDEST PUSH1 0x1 DUP3 PUSH1 0x3 DUP2 GT ISZERO PUSH2 0x61B JUMPI PUSH2 0x61B PUSH2 0x9B5 JUMP JUMPDEST SUB PUSH2 0x639 JUMPI PUSH1 0x40 MLOAD PUSH4 0xF645EEDF PUSH1 0xE0 SHL DUP2 MSTORE PUSH1 0x4 ADD PUSH1 0x40 MLOAD DUP1 SWAP2 SUB SWAP1 REVERT JUMPDEST PUSH1 0x2 DUP3 PUSH1 0x3 DUP2 GT ISZERO PUSH2 0x64D JUMPI PUSH2 0x64D PUSH2 0x9B5 JUMP JUMPDEST SUB PUSH2 0x66E JUMPI PUSH1 0x40 MLOAD PUSH4 0xFCE698F7 PUSH1 0xE0 SHL DUP2 MSTORE PUSH1 0x4 DUP2 ADD DUP3 SWAP1 MSTORE PUSH1 0x24 ADD PUSH2 0x2A1 JUMP JUMPDEST PUSH1 0x3 DUP3 PUSH1 0x3 DUP2 GT ISZERO PUSH2 0x682 JUMPI PUSH2 0x682 PUSH2 0x9B5 JUMP JUMPDEST SUB PUSH2 0x6A3 JUMPI PUSH1 0x40 MLOAD PUSH4 0x35E2F383 PUSH1 0xE2 SHL DUP2 MSTORE PUSH1 0x4 DUP2 ADD DUP3 SWAP1 MSTORE PUSH1 0x24 ADD PUSH2 0x2A1 JUMP JUMPDEST POP POP JUMP JUMPDEST PUSH0 DUP1 DUP1 PUSH32 0x7FFFFFFFFFFFFFFFFFFFFFFFFFFFFFFF5D576E7357A4501DDFE92F46681B20A0 DUP5 GT ISZERO PUSH2 0x6E0 JUMPI POP PUSH0 SWAP2 POP PUSH1 0x3 SWAP1 POP DUP3 PUSH2 0x765 JUMP JUMPDEST PUSH1 0x40 DUP1 MLOAD PUSH0 DUP1 DUP3 MSTORE PUSH1 0x20 DUP3 ADD DUP1 DUP5 MSTORE DUP11 SWAP1 MSTORE PUSH1 0xFF DUP10 AND SWAP3 DUP3 ADD SWAP3 SWAP1 SWAP3 MSTORE PUSH1 0x60 DUP2 ADD DUP8 SWAP1 MSTORE PUSH1 0x80 DUP2 ADD DUP7 SWAP1 MSTORE PUSH1 0x1 SWAP1 PUSH1 0xA0 ADD PUSH1 0x20 PUSH1 0x40 MLOAD PUSH1 0x20 DUP2 SUB SWAP1 DUP1 DUP5 SUB SWAP1 DUP6 GAS STATICCALL ISZERO DUP1 ISZERO PUSH2 0x731 JUMPI RETURNDATASIZE PUSH0 PUSH0 RETURNDATACOPY RETURNDATASIZE PUSH0 REVERT JUMPDEST POP POP PUSH1 0x40 MLOAD PUSH1 0x1F NOT ADD MLOAD SWAP2 POP POP PUSH1 0x1 PUSH1 0x1 PUSH1 0xA0 SHL SUB DUP2 AND PUSH2 0x75C JUMPI POP PUSH0 SWAP3 POP PUSH1 0x1 SWAP2 POP DUP3 SWAP1 POP PUSH2 0x765 JUMP JUMPDEST SWAP3 POP PUSH0 SWAP2 POP DUP2 SWAP1 POP JUMPDEST SWAP5 POP SWAP5 POP SWAP5 SWAP2 POP POP JUMP JUMPDEST PUSH0 PUSH0 PUSH0 PUSH1 0x60 DUP5 DUP7 SUB SLT ISZERO PUSH2 0x781 JUMPI PUSH0 PUSH0 REVERT JUMPDEST DUP4 CALLDATALOAD PUSH8 0xFFFFFFFFFFFFFFFF DUP2 GT ISZERO PUSH2 0x797 JUMPI PUSH0 PUSH0 REVERT JUMPDEST DUP5 ADD PUSH2 0x120 DUP2 DUP8 SUB SLT ISZERO PUSH2 0x7A9 JUMPI PUSH0 PUSH0 REVERT JUMPDEST SWAP6 PUSH1 0x20 DUP6 ADD CALLDATALOAD SWAP6 POP PUSH1 0x40 SWAP1 SWAP5 ADD CALLDATALOAD SWAP4 SWAP3 POP POP POP JUMP JUMPDEST PUSH0 PUSH0 PUSH1 0x20 DUP4 DUP6 SUB SLT ISZERO PUSH2 0x7CF JUMPI PUSH0 PUSH0 REVERT JUMPDEST DUP3 CALLDATALOAD PUSH8 0xFFFFFFFFFFFFFFFF DUP2 GT ISZERO PUSH2 0x7E5 JUMPI PUSH0 PUSH0 REVERT JUMPDEST DUP4 ADD PUSH1 0x1F DUP2 ADD DUP6 SGT PUSH2 0x7F5 JUMPI PUSH0 PUSH0 REVERT JUMPDEST DUP1 CALLDATALOAD PUSH8 0xFFFFFFFFFFFFFFFF DUP2 GT ISZERO PUSH2 0x80B JUMPI PUSH0 PUSH0 REVERT JUMPDEST DUP6 PUSH1 0x20 DUP3 PUSH1 0x5 SHL DUP5 ADD ADD GT ISZERO PUSH2 0x81F JUMPI PUSH0 PUSH0 REVERT JUMPDEST PUSH1 0x20 SWAP2 SWAP1 SWAP2 ADD SWAP6 SWAP1 SWAP5 POP SWAP3 POP POP POP JUMP JUMPDEST DUP1 CALLDATALOAD PUSH1 0x1 PUSH1 0x1 PUSH1 0xA0 SHL SUB DUP2 AND DUP2 EQ PUSH2 0x845 JUMPI PUSH0 PUSH0 REVERT JUMPDEST SWAP2 SWAP1 POP JUMP JUMPDEST PUSH0 PUSH0 PUSH0 PUSH0 PUSH1 0x60 DUP6 DUP8 SUB SLT ISZERO PUSH2 0x85D JUMPI PUSH0 PUSH0 REVERT JUMPDEST PUSH2 0x866 DUP6 PUSH2 0x82F JUMP JUMPDEST SWAP4 POP PUSH1 0x20 DUP6 ADD CALLDATALOAD SWAP3 POP PUSH1 0x40 DUP6 ADD CALLDATALOAD PUSH8 0xFFFFFFFFFFFFFFFF DUP2 GT ISZERO PUSH2 0x888 JUMPI PUSH0 PUSH0 REVERT JUMPDEST DUP6 ADD PUSH1 0x1F DUP2 ADD DUP8 SGT PUSH2 0x898 JUMPI PUSH0 PUSH0 REVERT JUMPDEST DUP1 CALLDATALOAD PUSH8 0xFFFFFFFFFFFFFFFF DUP2 GT ISZERO PUSH2 0x8AE JUMPI PUSH0 PUSH0 REVERT JUMPDEST DUP8 PUSH1 0x20 DUP3 DUP5 ADD ADD GT ISZERO PUSH2 0x8BF JUMPI PUSH0 PUSH0 REVERT JUMPDEST SWAP5 SWAP8 SWAP4 SWAP7 POP PUSH1 0x20 ADD SWAP5 POP POP POP JUMP JUMPDEST PUSH0 PUSH1 0x20 DUP3 DUP5 SUB SLT ISZERO PUSH2 0x8DD JUMPI PUSH0 PUSH0 REVERT JUMPDEST PUSH2 0x1C3 DUP3 PUSH2 0x82F JUMP JUMPDEST PUSH4 0x4E487B71 PUSH1 0xE0 SHL PUSH0 MSTORE PUSH1 0x32 PUSH1 0x4 MSTORE PUSH1 0x24 PUSH0 REVERT JUMPDEST PUSH0 DUP3 CALLDATALOAD PUSH1 0x5E NOT DUP4 CALLDATASIZE SUB ADD DUP2 SLT PUSH2 0x90E JUMPI PUSH0 PUSH0 REVERT JUMPDEST SWAP2 SWAP1 SWAP2 ADD SWAP3 SWAP2 POP POP JUMP JUMPDEST PUSH0 PUSH0 DUP4 CALLDATALOAD PUSH1 0x1E NOT DUP5 CALLDATASIZE SUB ADD DUP2 SLT PUSH2 0x92D JUMPI PUSH0 PUSH0 REVERT JUMPDEST DUP4 ADD DUP1 CALLDATALOAD SWAP2 POP PUSH8 0xFFFFFFFFFFFFFFFF DUP3 GT ISZERO PUSH2 0x947 JUMPI PUSH0 PUSH0 REVERT JUMPDEST PUSH1 0x20 ADD SWAP2 POP CALLDATASIZE DUP2 SWAP1 SUB DUP3 SGT ISZERO PUSH2 0x95B JUMPI PUSH0 PUSH0 REVERT JUMPDEST SWAP3 POP SWAP3 SWAP1 POP JUMP JUMPDEST DUP3 DUP2 MSTORE PUSH1 0x40 PUSH1 0x20 DUP3 ADD MSTORE PUSH0 DUP3 MLOAD DUP1 PUSH1 0x40 DUP5 ADD MSTORE DUP1 PUSH1 0x20 DUP6 ADD PUSH1 0x60 DUP6 ADD MCOPY PUSH0 PUSH1 0x60 DUP3 DUP6 ADD ADD MSTORE PUSH1 0x60 PUSH1 0x1F NOT PUSH1 0x1F DUP4 ADD AND DUP5 ADD ADD SWAP2 POP POP SWAP4 SWAP3 POP POP POP JUMP JUMPDEST PUSH0 PUSH1 0x20 DUP3 DUP5 SUB SLT ISZERO PUSH2 0x9AE JUMPI PUSH0 PUSH0 REVERT JUMPDEST POP MLOAD SWAP2 SWAP1 POP JUMP JUMPDEST PUSH4 0x4E487B71 PUSH1 0xE0 SHL PUSH0 MSTORE PUSH1 0x21 PUSH1 0x4 MSTORE PUSH1 0x24 PUSH0 REVERT INVALID LOG2 PUSH5 0x6970667358 0x22 SLT KECCAK256 PUSH16 0x520DFF21AE1AB2D28C703A83C6E3DCE4 0x2F 0x4D NUMBER 0xAF 0xC4 TLOAD CALLDATALOAD CALLDATALOAD PUSH27 0xFDF9D42B47BB64736F6C634300081C003300000000000000000000 "},"methodIdentifiers":{"entryPoint()":"b0d691fe","execute(address,uint256,bytes)":"b61d27f6","executeBatch((address,uint256,bytes)[])":"34fcd5be","getNonce()":"d087d288","initialize(address)":"c4d66de8","owner()":"8da5cb5b","validateUserOp((address,uint256,bytes,bytes,bytes32,uint256,bytes32,bytes,bytes),bytes32,uint256)":"19822f7c"}}}}}